{
  "_format": "hh-sol-artifact-1",
  "contractName": "gasChallenge",
  "sourceName": "contracts/gasChallenge.sol",
  "abi": [
    {
      "inputs": [],
      "name": "getSumOfArray",
      "outputs": [
        {
          "internalType": "uint256",
          "name": "",
          "type": "uint256"
        }
      ],
      "stateMutability": "view",
      "type": "function"
    },
    {
      "inputs": [],
      "name": "notOptimizedFunction",
      "outputs": [],
      "stateMutability": "nonpayable",
      "type": "function"
    },
    {
      "inputs": [],
      "name": "optimizedFunction",
      "outputs": [],
      "stateMutability": "nonpayable",
      "type": "function"
    }
  ],
  "bytecode": "0x6080604052604051806101400160405280600160ff168152602001600260ff168152602001600360ff168152602001600460ff168152602001600560ff168152602001600660ff168152602001600760ff168152602001600860ff168152602001600960ff168152602001600a60ff16815250600090600a610082929190610095565b5034801561008f57600080fd5b5061014c565b82600a601f0160209004810192821561011e5791602002820160005b838211156100ef57835183826101000a81548160ff021916908360ff16021790555092602001926001016020816000010492830192600103026100b1565b801561011c5782816101000a81549060ff02191690556001016020816000010492830192600103026100ef565b505b50905061012b919061012f565b5090565b5b80821115610148576000816000905550600101610130565b5090565b6104608061015b6000396000f3fe608060405234801561001057600080fd5b50600436106100415760003560e01c806368b5f223146100465780637ce418941461005057806380d2c8031461005a575b600080fd5b61004e610078565b005b6100586100cf565b005b6100626101fd565b60405161006f9190610335565b60405180910390f35b60005b600a8110156100cc5760008082600a811061009957610098610350565b5b602091828204019190066101000a81548160ff021916908360ff16021790555080806100c4906103ae565b91505061007b565b50565b600080600a806020026040519081016040528092919082600a801561012f576020028201916000905b82829054906101000a900460ff1660ff16815260200190600101906020826000010492830192600103820291508084116100f85790505b505050505090506000805b600a811015610176578281600a811061015657610155610350565b5b602002015160ff168201915060018161016f91906103f6565b905061013a565b50604051806101400160405280600060ff1660ff168152602001600060ff168152602001600060ff168152602001600060ff168152602001600060ff168152602001600060ff168152602001600060ff168152602001600060ff168152602001600060ff168152602001600060ff16815250600090600a6101f8929190610265565b505050565b6000806000905060005b600a81101561025d57600081600a811061022457610223610350565b5b602091828204019190069054906101000a900460ff1660ff168261024891906103f6565b91508080610255906103ae565b915050610207565b508091505090565b82600a601f016020900481019282156102ee5791602002820160005b838211156102bf57835183826101000a81548160ff021916908360ff1602179055509260200192600101602081600001049283019260010302610281565b80156102ec5782816101000a81549060ff02191690556001016020816000010492830192600103026102bf565b505b5090506102fb91906102ff565b5090565b5b80821115610318576000816000905550600101610300565b5090565b6000819050919050565b61032f8161031c565b82525050565b600060208201905061034a6000830184610326565b92915050565b7f4e487b7100000000000000000000000000000000000000000000000000000000600052603260045260246000fd5b7f4e487b7100000000000000000000000000000000000000000000000000000000600052601160045260246000fd5b60006103b98261031c565b91507fffffffffffffffffffffffffffffffffffffffffffffffffffffffffffffffff82036103eb576103ea61037f565b5b600182019050919050565b60006104018261031c565b915061040c8361031c565b92508282019050808211156104245761042361037f565b5b9291505056fea2646970667358221220a92b8b04a7ed942a40cdf5d04f6c263c0d1bdd153934c6d2f48a8c667a82174a64736f6c63430008120033",
  "linkReferences": {},
  "deployedLinkReferences": {}
}